{
  "_format": "hh-sol-artifact-1",
  "contractName": "IpNft",
  "sourceName": "contracts/IpNft.sol",
  "abi": [
    {
      "inputs": [],
      "stateMutability": "nonpayable",
      "type": "constructor"
    },
    {
      "anonymous": false,
      "inputs": [
        {
          "indexed": true,
          "internalType": "address",
          "name": "owner",
          "type": "address"
        },
        {
          "indexed": true,
          "internalType": "address",
          "name": "approved",
          "type": "address"
        },
        {
          "indexed": true,
          "internalType": "uint256",
          "name": "tokenId",
          "type": "uint256"
        }
      ],
      "name": "Approval",
      "type": "event"
    },
    {
      "anonymous": false,
      "inputs": [
        {
          "indexed": true,
          "internalType": "address",
          "name": "owner",
          "type": "address"
        },
        {
          "indexed": true,
          "internalType": "address",
          "name": "operator",
          "type": "address"
        },
        {
          "indexed": false,
          "internalType": "bool",
          "name": "approved",
          "type": "bool"
        }
      ],
      "name": "ApprovalForAll",
      "type": "event"
    },
    {
      "anonymous": false,
      "inputs": [
        {
          "indexed": true,
          "internalType": "bytes32",
          "name": "role",
          "type": "bytes32"
        },
        {
          "indexed": true,
          "internalType": "bytes32",
          "name": "previousAdminRole",
          "type": "bytes32"
        },
        {
          "indexed": true,
          "internalType": "bytes32",
          "name": "newAdminRole",
          "type": "bytes32"
        }
      ],
      "name": "RoleAdminChanged",
      "type": "event"
    },
    {
      "anonymous": false,
      "inputs": [
        {
          "indexed": true,
          "internalType": "bytes32",
          "name": "role",
          "type": "bytes32"
        },
        {
          "indexed": true,
          "internalType": "address",
          "name": "account",
          "type": "address"
        },
        {
          "indexed": true,
          "internalType": "address",
          "name": "sender",
          "type": "address"
        }
      ],
      "name": "RoleGranted",
      "type": "event"
    },
    {
      "anonymous": false,
      "inputs": [
        {
          "indexed": true,
          "internalType": "bytes32",
          "name": "role",
          "type": "bytes32"
        },
        {
          "indexed": true,
          "internalType": "address",
          "name": "account",
          "type": "address"
        },
        {
          "indexed": true,
          "internalType": "address",
          "name": "sender",
          "type": "address"
        }
      ],
      "name": "RoleRevoked",
      "type": "event"
    },
    {
      "anonymous": false,
      "inputs": [
        {
          "indexed": true,
          "internalType": "address",
          "name": "from",
          "type": "address"
        },
        {
          "indexed": true,
          "internalType": "address",
          "name": "to",
          "type": "address"
        },
        {
          "indexed": true,
          "internalType": "uint256",
          "name": "tokenId",
          "type": "uint256"
        }
      ],
      "name": "Transfer",
      "type": "event"
    },
    {
      "inputs": [],
      "name": "DEFAULT_ADMIN_ROLE",
      "outputs": [
        {
          "internalType": "bytes32",
          "name": "",
          "type": "bytes32"
        }
      ],
      "stateMutability": "view",
      "type": "function"
    },
    {
      "inputs": [],
      "name": "MINTER_ROLE",
      "outputs": [
        {
          "internalType": "bytes32",
          "name": "",
          "type": "bytes32"
        }
      ],
      "stateMutability": "view",
      "type": "function"
    },
    {
      "inputs": [
        {
          "internalType": "address",
          "name": "to",
          "type": "address"
        },
        {
          "internalType": "uint256",
          "name": "tokenId",
          "type": "uint256"
        }
      ],
      "name": "approve",
      "outputs": [],
      "stateMutability": "nonpayable",
      "type": "function"
    },
    {
      "inputs": [
        {
          "internalType": "address",
          "name": "owner",
          "type": "address"
        }
      ],
      "name": "balanceOf",
      "outputs": [
        {
          "internalType": "uint256",
          "name": "",
          "type": "uint256"
        }
      ],
      "stateMutability": "view",
      "type": "function"
    },
    {
      "inputs": [],
      "name": "currentTokenCount",
      "outputs": [
        {
          "internalType": "uint256",
          "name": "",
          "type": "uint256"
        }
      ],
      "stateMutability": "view",
      "type": "function"
    },
    {
      "inputs": [
        {
          "internalType": "uint256",
          "name": "tokenId",
          "type": "uint256"
        }
      ],
      "name": "getApproved",
      "outputs": [
        {
          "internalType": "address",
          "name": "",
          "type": "address"
        }
      ],
      "stateMutability": "view",
      "type": "function"
    },
    {
      "inputs": [
        {
          "internalType": "bytes32",
          "name": "role",
          "type": "bytes32"
        }
      ],
      "name": "getRoleAdmin",
      "outputs": [
        {
          "internalType": "bytes32",
          "name": "",
          "type": "bytes32"
        }
      ],
      "stateMutability": "view",
      "type": "function"
    },
    {
      "inputs": [
        {
          "internalType": "bytes32",
          "name": "role",
          "type": "bytes32"
        },
        {
          "internalType": "address",
          "name": "account",
          "type": "address"
        }
      ],
      "name": "grantRole",
      "outputs": [],
      "stateMutability": "nonpayable",
      "type": "function"
    },
    {
      "inputs": [
        {
          "internalType": "bytes32",
          "name": "role",
          "type": "bytes32"
        },
        {
          "internalType": "address",
          "name": "account",
          "type": "address"
        }
      ],
      "name": "hasRole",
      "outputs": [
        {
          "internalType": "bool",
          "name": "",
          "type": "bool"
        }
      ],
      "stateMutability": "view",
      "type": "function"
    },
    {
      "inputs": [
        {
          "internalType": "address",
          "name": "owner",
          "type": "address"
        },
        {
          "internalType": "address",
          "name": "operator",
          "type": "address"
        }
      ],
      "name": "isApprovedForAll",
      "outputs": [
        {
          "internalType": "bool",
          "name": "",
          "type": "bool"
        }
      ],
      "stateMutability": "view",
      "type": "function"
    },
    {
      "inputs": [],
      "name": "name",
      "outputs": [
        {
          "internalType": "string",
          "name": "",
          "type": "string"
        }
      ],
      "stateMutability": "view",
      "type": "function"
    },
    {
      "inputs": [
        {
          "internalType": "uint256",
          "name": "tokenId",
          "type": "uint256"
        }
      ],
      "name": "ownerOf",
      "outputs": [
        {
          "internalType": "address",
          "name": "",
          "type": "address"
        }
      ],
      "stateMutability": "view",
      "type": "function"
    },
    {
      "inputs": [
        {
          "internalType": "bytes32",
          "name": "role",
          "type": "bytes32"
        },
        {
          "internalType": "address",
          "name": "account",
          "type": "address"
        }
      ],
      "name": "renounceRole",
      "outputs": [],
      "stateMutability": "nonpayable",
      "type": "function"
    },
    {
      "inputs": [
        {
          "internalType": "bytes32",
          "name": "role",
          "type": "bytes32"
        },
        {
          "internalType": "address",
          "name": "account",
          "type": "address"
        }
      ],
      "name": "revokeRole",
      "outputs": [],
      "stateMutability": "nonpayable",
      "type": "function"
    },
    {
      "inputs": [
        {
          "internalType": "address",
          "name": "to",
          "type": "address"
        },
        {
          "internalType": "string",
          "name": "uri",
          "type": "string"
        }
      ],
      "name": "safeMint",
      "outputs": [],
      "stateMutability": "nonpayable",
      "type": "function"
    },
    {
      "inputs": [
        {
          "internalType": "address",
          "name": "from",
          "type": "address"
        },
        {
          "internalType": "address",
          "name": "to",
          "type": "address"
        },
        {
          "internalType": "uint256",
          "name": "tokenId",
          "type": "uint256"
        }
      ],
      "name": "safeTransferFrom",
      "outputs": [],
      "stateMutability": "nonpayable",
      "type": "function"
    },
    {
      "inputs": [
        {
          "internalType": "address",
          "name": "from",
          "type": "address"
        },
        {
          "internalType": "address",
          "name": "to",
          "type": "address"
        },
        {
          "internalType": "uint256",
          "name": "tokenId",
          "type": "uint256"
        },
        {
          "internalType": "bytes",
          "name": "data",
          "type": "bytes"
        }
      ],
      "name": "safeTransferFrom",
      "outputs": [],
      "stateMutability": "nonpayable",
      "type": "function"
    },
    {
      "inputs": [
        {
          "internalType": "address",
          "name": "operator",
          "type": "address"
        },
        {
          "internalType": "bool",
          "name": "approved",
          "type": "bool"
        }
      ],
      "name": "setApprovalForAll",
      "outputs": [],
      "stateMutability": "nonpayable",
      "type": "function"
    },
    {
      "inputs": [
        {
          "internalType": "bytes4",
          "name": "interfaceId",
          "type": "bytes4"
        }
      ],
      "name": "supportsInterface",
      "outputs": [
        {
          "internalType": "bool",
          "name": "",
          "type": "bool"
        }
      ],
      "stateMutability": "view",
      "type": "function"
    },
    {
      "inputs": [],
      "name": "symbol",
      "outputs": [
        {
          "internalType": "string",
          "name": "",
          "type": "string"
        }
      ],
      "stateMutability": "view",
      "type": "function"
    },
    {
      "inputs": [
        {
          "internalType": "uint256",
          "name": "tokenId",
          "type": "uint256"
        }
      ],
      "name": "tokenURI",
      "outputs": [
        {
          "internalType": "string",
          "name": "",
          "type": "string"
        }
      ],
      "stateMutability": "view",
      "type": "function"
    },
    {
      "inputs": [
        {
          "internalType": "address",
          "name": "from",
          "type": "address"
        },
        {
          "internalType": "address",
          "name": "to",
          "type": "address"
        },
        {
          "internalType": "uint256",
          "name": "tokenId",
          "type": "uint256"
        }
      ],
      "name": "transferFrom",
      "outputs": [],
      "stateMutability": "nonpayable",
      "type": "function"
    }
  ],
  "bytecode": "0x60806040523480156200001157600080fd5b506040518060400160405280600681526020017f49502d4e465400000000000000000000000000000000000000000000000000008152506040518060400160405280600581526020017f49504e465400000000000000000000000000000000000000000000000000000081525081600090816200008f9190620004d0565b508060019081620000a19190620004d0565b505050620000b96000801b33620000f160201b60201c565b620000eb7f9f2df0fed2c77648de5860a4cc508cd0818c85b8b8a1ab4ceeef8d981c8956a633620000f160201b60201c565b620005b7565b620001038282620001e360201b60201c565b620001df5760016007600084815260200190815260200160002060000160008373ffffffffffffffffffffffffffffffffffffffff1673ffffffffffffffffffffffffffffffffffffffff16815260200190815260200160002060006101000a81548160ff021916908315150217905550620001846200024e60201b60201c565b73ffffffffffffffffffffffffffffffffffffffff168173ffffffffffffffffffffffffffffffffffffffff16837f2f8788117e7eff1d82e926ec794901d17c78024a50270940304540a733656f0d60405160405180910390a45b5050565b60006007600084815260200190815260200160002060000160008373ffffffffffffffffffffffffffffffffffffffff1673ffffffffffffffffffffffffffffffffffffffff16815260200190815260200160002060009054906101000a900460ff16905092915050565b600033905090565b600081519050919050565b7f4e487b7100000000000000000000000000000000000000000000000000000000600052604160045260246000fd5b7f4e487b7100000000000000000000000000000000000000000000000000000000600052602260045260246000fd5b60006002820490506001821680620002d857607f821691505b602082108103620002ee57620002ed62000290565b5b50919050565b60008190508160005260206000209050919050565b60006020601f8301049050919050565b600082821b905092915050565b600060088302620003587fffffffffffffffffffffffffffffffffffffffffffffffffffffffffffffffff8262000319565b62000364868362000319565b95508019841693508086168417925050509392505050565b6000819050919050565b6000819050919050565b6000620003b1620003ab620003a5846200037c565b62000386565b6200037c565b9050919050565b6000819050919050565b620003cd8362000390565b620003e5620003dc82620003b8565b84845462000326565b825550505050565b600090565b620003fc620003ed565b62000409818484620003c2565b505050565b5b81811015620004315762000425600082620003f2565b6001810190506200040f565b5050565b601f82111562000480576200044a81620002f4565b620004558462000309565b8101602085101562000465578190505b6200047d620004748562000309565b8301826200040e565b50505b505050565b600082821c905092915050565b6000620004a56000198460080262000485565b1980831691505092915050565b6000620004c0838362000492565b9150826002028217905092915050565b620004db8262000256565b67ffffffffffffffff811115620004f757620004f662000261565b5b620005038254620002bf565b6200051082828562000435565b600060209050601f83116001811462000548576000841562000533578287015190505b6200053f8582620004b2565b865550620005af565b601f1984166200055886620002f4565b60005b8281101562000582578489015182556001820191506020850194506020810190506200055b565b86831015620005a257848901516200059e601f89168262000492565b8355505b6001600288020188555050505b505050505050565b61386480620005c76000396000f3fe608060405234801561001057600080fd5b50600436106101425760003560e01c806370a08231116100b8578063b88d4fde1161007c578063b88d4fde14610387578063c87b56dd146103a3578063d204c45e146103d3578063d5391393146103ef578063d547741f1461040d578063e985e9c51461042957610142565b806370a08231146102cf57806391d14854146102ff57806395d89b411461032f578063a217fddf1461034d578063a22cb4651461036b57610142565b806323b872dd1161010a57806323b872dd146101ff578063248a9ca31461021b5780632f2ff15d1461024b57806336568abe1461026757806342842e0e146102835780636352211e1461029f57610142565b806301ffc9a71461014757806306fdde0314610177578063081812fc14610195578063095ea7b3146101c557806311b639d9146101e1575b600080fd5b610161600480360381019061015c9190612385565b610459565b60405161016e91906123cd565b60405180910390f35b61017f61046b565b60405161018c9190612478565b60405180910390f35b6101af60048036038101906101aa91906124d0565b6104fd565b6040516101bc919061253e565b60405180910390f35b6101df60048036038101906101da9190612585565b610543565b005b6101e961065a565b6040516101f691906125d4565b60405180910390f35b610219600480360381019061021491906125ef565b61066b565b005b61023560048036038101906102309190612678565b6106cb565b60405161024291906126b4565b60405180910390f35b610265600480360381019061026091906126cf565b6106eb565b005b610281600480360381019061027c91906126cf565b61070c565b005b61029d600480360381019061029891906125ef565b61078f565b005b6102b960048036038101906102b491906124d0565b6107af565b6040516102c6919061253e565b60405180910390f35b6102e960048036038101906102e4919061270f565b610835565b6040516102f691906125d4565b60405180910390f35b610319600480360381019061031491906126cf565b6108ec565b60405161032691906123cd565b60405180910390f35b610337610957565b6040516103449190612478565b60405180910390f35b6103556109e9565b60405161036291906126b4565b60405180910390f35b61038560048036038101906103809190612768565b6109f0565b005b6103a1600480360381019061039c91906128dd565b610a06565b005b6103bd60048036038101906103b891906124d0565b610a68565b6040516103ca9190612478565b60405180910390f35b6103ed60048036038101906103e89190612a01565b610a7a565b005b6103f7610b00565b60405161040491906126b4565b60405180910390f35b610427600480360381019061042291906126cf565b610b24565b005b610443600480360381019061043e9190612a5d565b610b45565b60405161045091906123cd565b60405180910390f35b600061046482610bd9565b9050919050565b60606000805461047a90612acc565b80601f01602080910402602001604051908101604052809291908181526020018280546104a690612acc565b80156104f35780601f106104c8576101008083540402835291602001916104f3565b820191906000526020600020905b8154815290600101906020018083116104d657829003601f168201915b5050505050905090565b600061050882610c53565b6004600083815260200190815260200160002060009054906101000a900473ffffffffffffffffffffffffffffffffffffffff169050919050565b600061054e826107af565b90508073ffffffffffffffffffffffffffffffffffffffff168373ffffffffffffffffffffffffffffffffffffffff16036105be576040517f08c379a00000000000000000000000000000000000000000000000000000000081526004016105b590612b6f565b60405180910390fd5b8073ffffffffffffffffffffffffffffffffffffffff166105dd610c9e565b73ffffffffffffffffffffffffffffffffffffffff16148061060c575061060b81610606610c9e565b610b45565b5b61064b576040517f08c379a000000000000000000000000000000000000000000000000000000000815260040161064290612c01565b60405180910390fd5b6106558383610ca6565b505050565b60006106666008610d5f565b905090565b61067c610676610c9e565b82610d6d565b6106bb576040517f08c379a00000000000000000000000000000000000000000000000000000000081526004016106b290612c93565b60405180910390fd5b6106c6838383610e02565b505050565b600060076000838152602001908152602001600020600101549050919050565b6106f4826106cb565b6106fd816110fb565b610707838361110f565b505050565b610714610c9e565b73ffffffffffffffffffffffffffffffffffffffff168173ffffffffffffffffffffffffffffffffffffffff1614610781576040517f08c379a000000000000000000000000000000000000000000000000000000000815260040161077890612d25565b60405180910390fd5b61078b82826111f0565b5050565b6107aa83838360405180602001604052806000815250610a06565b505050565b6000806107bb836112d2565b9050600073ffffffffffffffffffffffffffffffffffffffff168173ffffffffffffffffffffffffffffffffffffffff160361082c576040517f08c379a000000000000000000000000000000000000000000000000000000000815260040161082390612d91565b60405180910390fd5b80915050919050565b60008073ffffffffffffffffffffffffffffffffffffffff168273ffffffffffffffffffffffffffffffffffffffff16036108a5576040517f08c379a000000000000000000000000000000000000000000000000000000000815260040161089c90612e23565b60405180910390fd5b600360008373ffffffffffffffffffffffffffffffffffffffff1673ffffffffffffffffffffffffffffffffffffffff168152602001908152602001600020549050919050565b60006007600084815260200190815260200160002060000160008373ffffffffffffffffffffffffffffffffffffffff1673ffffffffffffffffffffffffffffffffffffffff16815260200190815260200160002060009054906101000a900460ff16905092915050565b60606001805461096690612acc565b80601f016020809104026020016040519081016040528092919081815260200182805461099290612acc565b80156109df5780601f106109b4576101008083540402835291602001916109df565b820191906000526020600020905b8154815290600101906020018083116109c257829003601f168201915b5050505050905090565b6000801b81565b610a026109fb610c9e565b838361130f565b5050565b610a17610a11610c9e565b83610d6d565b610a56576040517f08c379a0000000000000000000000000000000000000000000000000000000008152600401610a4d90612c93565b60405180910390fd5b610a628484848461147b565b50505050565b6060610a73826114d7565b9050919050565b7f9f2df0fed2c77648de5860a4cc508cd0818c85b8b8a1ab4ceeef8d981c8956a6610aa4816110fb565b610ace7f9f2df0fed2c77648de5860a4cc508cd0818c85b8b8a1ab4ceeef8d981c8956a6336111f0565b6000610ada6008610d5f565b9050610ae660086115e9565b610af084826115ff565b610afa818461161d565b50505050565b7f9f2df0fed2c77648de5860a4cc508cd0818c85b8b8a1ab4ceeef8d981c8956a681565b610b2d826106cb565b610b36816110fb565b610b4083836111f0565b505050565b6000600560008473ffffffffffffffffffffffffffffffffffffffff1673ffffffffffffffffffffffffffffffffffffffff16815260200190815260200160002060008373ffffffffffffffffffffffffffffffffffffffff1673ffffffffffffffffffffffffffffffffffffffff16815260200190815260200160002060009054906101000a900460ff16905092915050565b60007f7965db0b000000000000000000000000000000000000000000000000000000007bffffffffffffffffffffffffffffffffffffffffffffffffffffffff1916827bffffffffffffffffffffffffffffffffffffffffffffffffffffffff19161480610c4c5750610c4b8261168a565b5b9050919050565b610c5c8161176c565b610c9b576040517f08c379a0000000000000000000000000000000000000000000000000000000008152600401610c9290612d91565b60405180910390fd5b50565b600033905090565b816004600083815260200190815260200160002060006101000a81548173ffffffffffffffffffffffffffffffffffffffff021916908373ffffffffffffffffffffffffffffffffffffffff160217905550808273ffffffffffffffffffffffffffffffffffffffff16610d19836107af565b73ffffffffffffffffffffffffffffffffffffffff167f8c5be1e5ebec7d5bd14f71427d1e84f3dd0314c0f7b2291e5b200ac8c7c3b92560405160405180910390a45050565b600081600001549050919050565b600080610d79836107af565b90508073ffffffffffffffffffffffffffffffffffffffff168473ffffffffffffffffffffffffffffffffffffffff161480610dbb5750610dba8185610b45565b5b80610df957508373ffffffffffffffffffffffffffffffffffffffff16610de1846104fd565b73ffffffffffffffffffffffffffffffffffffffff16145b91505092915050565b8273ffffffffffffffffffffffffffffffffffffffff16610e22826107af565b73ffffffffffffffffffffffffffffffffffffffff1614610e78576040517f08c379a0000000000000000000000000000000000000000000000000000000008152600401610e6f90612eb5565b60405180910390fd5b600073ffffffffffffffffffffffffffffffffffffffff168273ffffffffffffffffffffffffffffffffffffffff1603610ee7576040517f08c379a0000000000000000000000000000000000000000000000000000000008152600401610ede90612f47565b60405180910390fd5b610ef483838360016117ad565b8273ffffffffffffffffffffffffffffffffffffffff16610f14826107af565b73ffffffffffffffffffffffffffffffffffffffff1614610f6a576040517f08c379a0000000000000000000000000000000000000000000000000000000008152600401610f6190612eb5565b60405180910390fd5b6004600082815260200190815260200160002060006101000a81549073ffffffffffffffffffffffffffffffffffffffff02191690556001600360008573ffffffffffffffffffffffffffffffffffffffff1673ffffffffffffffffffffffffffffffffffffffff168152602001908152602001600020600082825403925050819055506001600360008473ffffffffffffffffffffffffffffffffffffffff1673ffffffffffffffffffffffffffffffffffffffff16815260200190815260200160002060008282540192505081905550816002600083815260200190815260200160002060006101000a81548173ffffffffffffffffffffffffffffffffffffffff021916908373ffffffffffffffffffffffffffffffffffffffff160217905550808273ffffffffffffffffffffffffffffffffffffffff168473ffffffffffffffffffffffffffffffffffffffff167fddf252ad1be2c89b69c2b068fc378daa952ba7f163c4a11628f55a4df523b3ef60405160405180910390a46110f683838360016118d3565b505050565b61110c81611107610c9e565b6118d9565b50565b61111982826108ec565b6111ec5760016007600084815260200190815260200160002060000160008373ffffffffffffffffffffffffffffffffffffffff1673ffffffffffffffffffffffffffffffffffffffff16815260200190815260200160002060006101000a81548160ff021916908315150217905550611191610c9e565b73ffffffffffffffffffffffffffffffffffffffff168173ffffffffffffffffffffffffffffffffffffffff16837f2f8788117e7eff1d82e926ec794901d17c78024a50270940304540a733656f0d60405160405180910390a45b5050565b6111fa82826108ec565b156112ce5760006007600084815260200190815260200160002060000160008373ffffffffffffffffffffffffffffffffffffffff1673ffffffffffffffffffffffffffffffffffffffff16815260200190815260200160002060006101000a81548160ff021916908315150217905550611273610c9e565b73ffffffffffffffffffffffffffffffffffffffff168173ffffffffffffffffffffffffffffffffffffffff16837ff6391f5c32d9c69d2a47ea670b442974b53935d1edc7fd64eb21e047a839171b60405160405180910390a45b5050565b60006002600083815260200190815260200160002060009054906101000a900473ffffffffffffffffffffffffffffffffffffffff169050919050565b8173ffffffffffffffffffffffffffffffffffffffff168373ffffffffffffffffffffffffffffffffffffffff160361137d576040517f08c379a000000000000000000000000000000000000000000000000000000000815260040161137490612fb3565b60405180910390fd5b80600560008573ffffffffffffffffffffffffffffffffffffffff1673ffffffffffffffffffffffffffffffffffffffff16815260200190815260200160002060008473ffffffffffffffffffffffffffffffffffffffff1673ffffffffffffffffffffffffffffffffffffffff16815260200190815260200160002060006101000a81548160ff0219169083151502179055508173ffffffffffffffffffffffffffffffffffffffff168373ffffffffffffffffffffffffffffffffffffffff167f17307eab39ab6107e8899845ad3d59bd9653f200f220920489ca2b5937696c318360405161146e91906123cd565b60405180910390a3505050565b611486848484610e02565b6114928484848461195e565b6114d1576040517f08c379a00000000000000000000000000000000000000000000000000000000081526004016114c890613045565b60405180910390fd5b50505050565b60606114e282610c53565b600060066000848152602001908152602001600020805461150290612acc565b80601f016020809104026020016040519081016040528092919081815260200182805461152e90612acc565b801561157b5780601f106115505761010080835404028352916020019161157b565b820191906000526020600020905b81548152906001019060200180831161155e57829003601f168201915b50505050509050600061158c611ae5565b905060008151036115a15781925050506115e4565b6000825111156115d65780826040516020016115be9291906130a1565b604051602081830303815290604052925050506115e4565b6115df84611b22565b925050505b919050565b6001816000016000828254019250508190555050565b611619828260405180602001604052806000815250611b8a565b5050565b6116268261176c565b611665576040517f08c379a000000000000000000000000000000000000000000000000000000000815260040161165c90613137565b60405180910390fd5b806006600084815260200190815260200160002090816116859190613303565b505050565b60007f80ac58cd000000000000000000000000000000000000000000000000000000007bffffffffffffffffffffffffffffffffffffffffffffffffffffffff1916827bffffffffffffffffffffffffffffffffffffffffffffffffffffffff1916148061175557507f5b5e139f000000000000000000000000000000000000000000000000000000007bffffffffffffffffffffffffffffffffffffffffffffffffffffffff1916827bffffffffffffffffffffffffffffffffffffffffffffffffffffffff1916145b80611765575061176482611be5565b5b9050919050565b60008073ffffffffffffffffffffffffffffffffffffffff1661178e836112d2565b73ffffffffffffffffffffffffffffffffffffffff1614159050919050565b60018111156118cd57600073ffffffffffffffffffffffffffffffffffffffff168473ffffffffffffffffffffffffffffffffffffffff16146118415780600360008673ffffffffffffffffffffffffffffffffffffffff1673ffffffffffffffffffffffffffffffffffffffff16815260200190815260200160002060008282546118399190613404565b925050819055505b600073ffffffffffffffffffffffffffffffffffffffff168373ffffffffffffffffffffffffffffffffffffffff16146118cc5780600360008573ffffffffffffffffffffffffffffffffffffffff1673ffffffffffffffffffffffffffffffffffffffff16815260200190815260200160002060008282546118c49190613438565b925050819055505b5b50505050565b50505050565b6118e382826108ec565b61195a576118f081611c4f565b6118fe8360001c6020611c7c565b60405160200161190f929190613504565b6040516020818303038152906040526040517f08c379a00000000000000000000000000000000000000000000000000000000081526004016119519190612478565b60405180910390fd5b5050565b600061197f8473ffffffffffffffffffffffffffffffffffffffff16611eb8565b15611ad8578373ffffffffffffffffffffffffffffffffffffffff1663150b7a026119a8610c9e565b8786866040518563ffffffff1660e01b81526004016119ca9493929190613593565b6020604051808303816000875af1925050508015611a0657506040513d601f19601f82011682018060405250810190611a0391906135f4565b60015b611a88573d8060008114611a36576040519150601f19603f3d011682016040523d82523d6000602084013e611a3b565b606091505b506000815103611a80576040517f08c379a0000000000000000000000000000000000000000000000000000000008152600401611a7790613045565b60405180910390fd5b805181602001fd5b63150b7a0260e01b7bffffffffffffffffffffffffffffffffffffffffffffffffffffffff1916817bffffffffffffffffffffffffffffffffffffffffffffffffffffffff191614915050611add565b600190505b949350505050565b60606040518060400160405280600781526020017f697066733a2f2f00000000000000000000000000000000000000000000000000815250905090565b6060611b2d82610c53565b6000611b37611ae5565b90506000815111611b575760405180602001604052806000815250611b82565b80611b6184611edb565b604051602001611b729291906130a1565b6040516020818303038152906040525b915050919050565b611b948383611fa9565b611ba1600084848461195e565b611be0576040517f08c379a0000000000000000000000000000000000000000000000000000000008152600401611bd790613045565b60405180910390fd5b505050565b60007f01ffc9a7000000000000000000000000000000000000000000000000000000007bffffffffffffffffffffffffffffffffffffffffffffffffffffffff1916827bffffffffffffffffffffffffffffffffffffffffffffffffffffffff1916149050919050565b6060611c758273ffffffffffffffffffffffffffffffffffffffff16601460ff16611c7c565b9050919050565b606060006002836002611c8f9190613621565b611c999190613438565b67ffffffffffffffff811115611cb257611cb16127b2565b5b6040519080825280601f01601f191660200182016040528015611ce45781602001600182028036833780820191505090505b5090507f300000000000000000000000000000000000000000000000000000000000000081600081518110611d1c57611d1b613663565b5b60200101907effffffffffffffffffffffffffffffffffffffffffffffffffffffffffffff1916908160001a9053507f780000000000000000000000000000000000000000000000000000000000000081600181518110611d8057611d7f613663565b5b60200101907effffffffffffffffffffffffffffffffffffffffffffffffffffffffffffff1916908160001a90535060006001846002611dc09190613621565b611dca9190613438565b90505b6001811115611e6a577f3031323334353637383961626364656600000000000000000000000000000000600f861660108110611e0c57611e0b613663565b5b1a60f81b828281518110611e2357611e22613663565b5b60200101907effffffffffffffffffffffffffffffffffffffffffffffffffffffffffffff1916908160001a905350600485901c945080611e6390613692565b9050611dcd565b5060008414611eae576040517f08c379a0000000000000000000000000000000000000000000000000000000008152600401611ea590613707565b60405180910390fd5b8091505092915050565b6000808273ffffffffffffffffffffffffffffffffffffffff163b119050919050565b606060006001611eea846121c6565b01905060008167ffffffffffffffff811115611f0957611f086127b2565b5b6040519080825280601f01601f191660200182016040528015611f3b5781602001600182028036833780820191505090505b509050600082602001820190505b600115611f9e578080600190039150507f3031323334353637383961626364656600000000000000000000000000000000600a86061a8153600a8581611f9257611f91613727565b5b04945060008503611f49575b819350505050919050565b600073ffffffffffffffffffffffffffffffffffffffff168273ffffffffffffffffffffffffffffffffffffffff1603612018576040517f08c379a000000000000000000000000000000000000000000000000000000000815260040161200f906137a2565b60405180910390fd5b6120218161176c565b15612061576040517f08c379a00000000000000000000000000000000000000000000000000000000081526004016120589061380e565b60405180910390fd5b61206f6000838360016117ad565b6120788161176c565b156120b8576040517f08c379a00000000000000000000000000000000000000000000000000000000081526004016120af9061380e565b60405180910390fd5b6001600360008473ffffffffffffffffffffffffffffffffffffffff1673ffffffffffffffffffffffffffffffffffffffff16815260200190815260200160002060008282540192505081905550816002600083815260200190815260200160002060006101000a81548173ffffffffffffffffffffffffffffffffffffffff021916908373ffffffffffffffffffffffffffffffffffffffff160217905550808273ffffffffffffffffffffffffffffffffffffffff16600073ffffffffffffffffffffffffffffffffffffffff167fddf252ad1be2c89b69c2b068fc378daa952ba7f163c4a11628f55a4df523b3ef60405160405180910390a46121c26000838360016118d3565b5050565b600080600090507a184f03e93ff9f4daa797ed6e38ed64bf6a1f0100000000000000008310612224577a184f03e93ff9f4daa797ed6e38ed64bf6a1f010000000000000000838161221a57612219613727565b5b0492506040810190505b6d04ee2d6d415b85acef81000000008310612261576d04ee2d6d415b85acef8100000000838161225757612256613727565b5b0492506020810190505b662386f26fc10000831061229057662386f26fc10000838161228657612285613727565b5b0492506010810190505b6305f5e10083106122b9576305f5e10083816122af576122ae613727565b5b0492506008810190505b61271083106122de5761271083816122d4576122d3613727565b5b0492506004810190505b6064831061230157606483816122f7576122f6613727565b5b0492506002810190505b600a8310612310576001810190505b80915050919050565b6000604051905090565b600080fd5b600080fd5b60007fffffffff0000000000000000000000000000000000000000000000000000000082169050919050565b6123628161232d565b811461236d57600080fd5b50565b60008135905061237f81612359565b92915050565b60006020828403121561239b5761239a612323565b5b60006123a984828501612370565b91505092915050565b60008115159050919050565b6123c7816123b2565b82525050565b60006020820190506123e260008301846123be565b92915050565b600081519050919050565b600082825260208201905092915050565b60005b83811015612422578082015181840152602081019050612407565b60008484015250505050565b6000601f19601f8301169050919050565b600061244a826123e8565b61245481856123f3565b9350612464818560208601612404565b61246d8161242e565b840191505092915050565b60006020820190508181036000830152612492818461243f565b905092915050565b6000819050919050565b6124ad8161249a565b81146124b857600080fd5b50565b6000813590506124ca816124a4565b92915050565b6000602082840312156124e6576124e5612323565b5b60006124f4848285016124bb565b91505092915050565b600073ffffffffffffffffffffffffffffffffffffffff82169050919050565b6000612528826124fd565b9050919050565b6125388161251d565b82525050565b6000602082019050612553600083018461252f565b92915050565b6125628161251d565b811461256d57600080fd5b50565b60008135905061257f81612559565b92915050565b6000806040838503121561259c5761259b612323565b5b60006125aa85828601612570565b92505060206125bb858286016124bb565b9150509250929050565b6125ce8161249a565b82525050565b60006020820190506125e960008301846125c5565b92915050565b60008060006060848603121561260857612607612323565b5b600061261686828701612570565b935050602061262786828701612570565b9250506040612638868287016124bb565b9150509250925092565b6000819050919050565b61265581612642565b811461266057600080fd5b50565b6000813590506126728161264c565b92915050565b60006020828403121561268e5761268d612323565b5b600061269c84828501612663565b91505092915050565b6126ae81612642565b82525050565b60006020820190506126c960008301846126a5565b92915050565b600080604083850312156126e6576126e5612323565b5b60006126f485828601612663565b925050602061270585828601612570565b9150509250929050565b60006020828403121561272557612724612323565b5b600061273384828501612570565b91505092915050565b612745816123b2565b811461275057600080fd5b50565b6000813590506127628161273c565b92915050565b6000806040838503121561277f5761277e612323565b5b600061278d85828601612570565b925050602061279e85828601612753565b9150509250929050565b600080fd5b600080fd5b7f4e487b7100000000000000000000000000000000000000000000000000000000600052604160045260246000fd5b6127ea8261242e565b810181811067ffffffffffffffff82111715612809576128086127b2565b5b80604052505050565b600061281c612319565b905061282882826127e1565b919050565b600067ffffffffffffffff821115612848576128476127b2565b5b6128518261242e565b9050602081019050919050565b82818337600083830152505050565b600061288061287b8461282d565b612812565b90508281526020810184848401111561289c5761289b6127ad565b5b6128a784828561285e565b509392505050565b600082601f8301126128c4576128c36127a8565b5b81356128d484826020860161286d565b91505092915050565b600080600080608085870312156128f7576128f6612323565b5b600061290587828801612570565b945050602061291687828801612570565b9350506040612927878288016124bb565b925050606085013567ffffffffffffffff81111561294857612947612328565b5b612954878288016128af565b91505092959194509250565b600067ffffffffffffffff82111561297b5761297a6127b2565b5b6129848261242e565b9050602081019050919050565b60006129a461299f84612960565b612812565b9050828152602081018484840111156129c0576129bf6127ad565b5b6129cb84828561285e565b509392505050565b600082601f8301126129e8576129e76127a8565b5b81356129f8848260208601612991565b91505092915050565b60008060408385031215612a1857612a17612323565b5b6000612a2685828601612570565b925050602083013567ffffffffffffffff811115612a4757612a46612328565b5b612a53858286016129d3565b9150509250929050565b60008060408385031215612a7457612a73612323565b5b6000612a8285828601612570565b9250506020612a9385828601612570565b9150509250929050565b7f4e487b7100000000000000000000000000000000000000000000000000000000600052602260045260246000fd5b60006002820490506001821680612ae457607f821691505b602082108103612af757612af6612a9d565b5b50919050565b7f4552433732313a20617070726f76616c20746f2063757272656e74206f776e6560008201527f7200000000000000000000000000000000000000000000000000000000000000602082015250565b6000612b596021836123f3565b9150612b6482612afd565b604082019050919050565b60006020820190508181036000830152612b8881612b4c565b9050919050565b7f4552433732313a20617070726f76652063616c6c6572206973206e6f7420746f60008201527f6b656e206f776e6572206f7220617070726f76656420666f7220616c6c000000602082015250565b6000612beb603d836123f3565b9150612bf682612b8f565b604082019050919050565b60006020820190508181036000830152612c1a81612bde565b9050919050565b7f4552433732313a2063616c6c6572206973206e6f7420746f6b656e206f776e6560008201527f72206f7220617070726f76656400000000000000000000000000000000000000602082015250565b6000612c7d602d836123f3565b9150612c8882612c21565b604082019050919050565b60006020820190508181036000830152612cac81612c70565b9050919050565b7f416363657373436f6e74726f6c3a2063616e206f6e6c792072656e6f756e636560008201527f20726f6c657320666f722073656c660000000000000000000000000000000000602082015250565b6000612d0f602f836123f3565b9150612d1a82612cb3565b604082019050919050565b60006020820190508181036000830152612d3e81612d02565b9050919050565b7f4552433732313a20696e76616c696420746f6b656e2049440000000000000000600082015250565b6000612d7b6018836123f3565b9150612d8682612d45565b602082019050919050565b60006020820190508181036000830152612daa81612d6e565b9050919050565b7f4552433732313a2061646472657373207a65726f206973206e6f74206120766160008201527f6c6964206f776e65720000000000000000000000000000000000000000000000602082015250565b6000612e0d6029836123f3565b9150612e1882612db1565b604082019050919050565b60006020820190508181036000830152612e3c81612e00565b9050919050565b7f4552433732313a207472616e736665722066726f6d20696e636f72726563742060008201527f6f776e6572000000000000000000000000000000000000000000000000000000602082015250565b6000612e9f6025836123f3565b9150612eaa82612e43565b604082019050919050565b60006020820190508181036000830152612ece81612e92565b9050919050565b7f4552433732313a207472616e7366657220746f20746865207a65726f2061646460008201527f7265737300000000000000000000000000000000000000000000000000000000602082015250565b6000612f316024836123f3565b9150612f3c82612ed5565b604082019050919050565b60006020820190508181036000830152612f6081612f24565b9050919050565b7f4552433732313a20617070726f766520746f2063616c6c657200000000000000600082015250565b6000612f9d6019836123f3565b9150612fa882612f67565b602082019050919050565b60006020820190508181036000830152612fcc81612f90565b9050919050565b7f4552433732313a207472616e7366657220746f206e6f6e20455243373231526560008201527f63656976657220696d706c656d656e7465720000000000000000000000000000602082015250565b600061302f6032836123f3565b915061303a82612fd3565b604082019050919050565b6000602082019050818103600083015261305e81613022565b9050919050565b600081905092915050565b600061307b826123e8565b6130858185613065565b9350613095818560208601612404565b80840191505092915050565b60006130ad8285613070565b91506130b98284613070565b91508190509392505050565b7f45524337323155524953746f726167653a2055524920736574206f66206e6f6e60008201527f6578697374656e7420746f6b656e000000000000000000000000000000000000602082015250565b6000613121602e836123f3565b915061312c826130c5565b604082019050919050565b6000602082019050818103600083015261315081613114565b9050919050565b60008190508160005260206000209050919050565b60006020601f8301049050919050565b600082821b905092915050565b6000600883026131b97fffffffffffffffffffffffffffffffffffffffffffffffffffffffffffffffff8261317c565b6131c3868361317c565b95508019841693508086168417925050509392505050565b6000819050919050565b60006132006131fb6131f68461249a565b6131db565b61249a565b9050919050565b6000819050919050565b61321a836131e5565b61322e61322682613207565b848454613189565b825550505050565b600090565b613243613236565b61324e818484613211565b505050565b5b818110156132725761326760008261323b565b600181019050613254565b5050565b601f8211156132b75761328881613157565b6132918461316c565b810160208510156132a0578190505b6132b46132ac8561316c565b830182613253565b50505b505050565b600082821c905092915050565b60006132da600019846008026132bc565b1980831691505092915050565b60006132f383836132c9565b9150826002028217905092915050565b61330c826123e8565b67ffffffffffffffff811115613325576133246127b2565b5b61332f8254612acc565b61333a828285613276565b600060209050601f83116001811461336d576000841561335b578287015190505b61336585826132e7565b8655506133cd565b601f19841661337b86613157565b60005b828110156133a35784890151825560018201915060208501945060208101905061337e565b868310156133c057848901516133bc601f8916826132c9565b8355505b6001600288020188555050505b505050505050565b7f4e487b7100000000000000000000000000000000000000000000000000000000600052601160045260246000fd5b600061340f8261249a565b915061341a8361249a565b9250828203905081811115613432576134316133d5565b5b92915050565b60006134438261249a565b915061344e8361249a565b9250828201905080821115613466576134656133d5565b5b92915050565b7f416363657373436f6e74726f6c3a206163636f756e7420000000000000000000600082015250565b60006134a2601783613065565b91506134ad8261346c565b601782019050919050565b7f206973206d697373696e6720726f6c6520000000000000000000000000000000600082015250565b60006134ee601183613065565b91506134f9826134b8565b601182019050919050565b600061350f82613495565b915061351b8285613070565b9150613526826134e1565b91506135328284613070565b91508190509392505050565b600081519050919050565b600082825260208201905092915050565b60006135658261353e565b61356f8185613549565b935061357f818560208601612404565b6135888161242e565b840191505092915050565b60006080820190506135a8600083018761252f565b6135b5602083018661252f565b6135c260408301856125c5565b81810360608301526135d4818461355a565b905095945050505050565b6000815190506135ee81612359565b92915050565b60006020828403121561360a57613609612323565b5b6000613618848285016135df565b91505092915050565b600061362c8261249a565b91506136378361249a565b92508282026136458161249a565b9150828204841483151761365c5761365b6133d5565b5b5092915050565b7f4e487b7100000000000000000000000000000000000000000000000000000000600052603260045260246000fd5b600061369d8261249a565b9150600082036136b0576136af6133d5565b5b600182039050919050565b7f537472696e67733a20686578206c656e67746820696e73756666696369656e74600082015250565b60006136f16020836123f3565b91506136fc826136bb565b602082019050919050565b60006020820190508181036000830152613720816136e4565b9050919050565b7f4e487b7100000000000000000000000000000000000000000000000000000000600052601260045260246000fd5b7f4552433732313a206d696e7420746f20746865207a65726f2061646472657373600082015250565b600061378c6020836123f3565b915061379782613756565b602082019050919050565b600060208201905081810360008301526137bb8161377f565b9050919050565b7f4552433732313a20746f6b656e20616c7265616479206d696e74656400000000600082015250565b60006137f8601c836123f3565b9150613803826137c2565b602082019050919050565b60006020820190508181036000830152613827816137eb565b905091905056fea2646970667358221220b2c68f638f6d62d6a88057461d163ddd7e03013edcd1196cf6f98e20352f592664736f6c63430008110033",
  "linkReferences": {},
  "deployedLinkReferences": {}
}